{
  "contractName": "TokenGenerator",
  "abi": [
    {
      "constant": true,
      "inputs": [
        {
          "name": "",
          "type": "uint256"
        }
      ],
      "name": "deployedTokensAddresses",
      "outputs": [
        {
          "name": "",
          "type": "address"
        }
      ],
      "payable": false,
      "stateMutability": "view",
      "type": "function"
    },
    {
      "inputs": [],
      "payable": false,
      "stateMutability": "nonpayable",
      "type": "constructor"
    },
    {
      "constant": false,
      "inputs": [
        {
          "name": "_name",
          "type": "string"
        },
        {
          "name": "_symbol",
          "type": "string"
        },
        {
          "name": "_decimals",
          "type": "uint256"
        },
        {
          "name": "_supply",
          "type": "uint256"
        },
        {
          "name": "tokenOwner",
          "type": "address"
        }
      ],
      "name": "generateToken",
      "outputs": [
        {
          "name": "",
          "type": "address"
        }
      ],
      "payable": false,
      "stateMutability": "nonpayable",
      "type": "function"
    },
    {
      "constant": true,
      "inputs": [],
      "name": "getAllAddresses",
      "outputs": [
        {
          "name": "",
          "type": "address[]"
        }
      ],
      "payable": false,
      "stateMutability": "view",
      "type": "function"
    },
    {
      "constant": false,
      "inputs": [],
      "name": "addMoney",
      "outputs": [
        {
          "name": "",
          "type": "string"
        }
      ],
      "payable": true,
      "stateMutability": "payable",
      "type": "function"
    }
  ],
  "bytecode": "0x608060405234801561001057600080fd5b5033600160006101000a81548173ffffffffffffffffffffffffffffffffffffffff021916908373ffffffffffffffffffffffffffffffffffffffff1602179055506115f6806100616000396000f3fe608060405260043610610062576000357c0100000000000000000000000000000000000000000000000000000000900463ffffffff1680631b3f48421461006757806323f93c45146100ea57806355ab954a146102bd5780639516a10414610338575b600080fd5b61006f6103a4565b6040518080602001828103825283818151815260200191508051906020019080838360005b838110156100af578082015181840152602081019050610094565b50505050905090810190601f1680156100dc5780820380516001836020036101000a031916815260200191505b509250505060405180910390f35b3480156100f657600080fd5b5061027b600480360360a081101561010d57600080fd5b810190808035906020019064010000000081111561012a57600080fd5b82018360208201111561013c57600080fd5b8035906020019184600183028401116401000000008311171561015e57600080fd5b91908080601f016020809104026020016040519081016040528093929190818152602001838380828437600081840152601f19601f820116905080830192505050505050509192919290803590602001906401000000008111156101c157600080fd5b8201836020820111156101d357600080fd5b803590602001918460018302840111640100000000831117156101f557600080fd5b91908080601f016020809104026020016040519081016040528093929190818152602001838380828437600081840152601f19601f8201169050808301925050505050505091929192908035906020019092919080359060200190929190803573ffffffffffffffffffffffffffffffffffffffff1690602001909291905050506104a6565b604051808273ffffffffffffffffffffffffffffffffffffffff1673ffffffffffffffffffffffffffffffffffffffff16815260200191505060405180910390f35b3480156102c957600080fd5b506102f6600480360360208110156102e057600080fd5b81019080803590602001909291905050506106b2565b604051808273ffffffffffffffffffffffffffffffffffffffff1673ffffffffffffffffffffffffffffffffffffffff16815260200191505060405180910390f35b34801561034457600080fd5b5061034d6106f0565b6040518080602001828103825283818151815260200191508051906020019060200280838360005b83811015610390578082015181840152602081019050610375565b505050509050019250505060405180910390f35b6060600160009054906101000a900473ffffffffffffffffffffffffffffffffffffffff1673ffffffffffffffffffffffffffffffffffffffff163373ffffffffffffffffffffffffffffffffffffffff1614151561046b576040517f08c379a00000000000000000000000000000000000000000000000000000000081526004018080602001828103825260168152602001807f4f6e6c79206f776e657220697320616c6c6f776564210000000000000000000081525060200191505060405180910390fd5b6040805190810160405280600581526020017f6164646564000000000000000000000000000000000000000000000000000000815250905090565b60008086868686866104b661077e565b8080602001806020018681526020018581526020018473ffffffffffffffffffffffffffffffffffffffff1673ffffffffffffffffffffffffffffffffffffffff168152602001838103835288818151815260200191508051906020019080838360005b8381101561053557808201518184015260208101905061051a565b50505050905090810190601f1680156105625780820380516001836020036101000a031916815260200191505b50838103825287818151815260200191508051906020019080838360005b8381101561059b578082015181840152602081019050610580565b50505050905090810190601f1680156105c85780820380516001836020036101000a031916815260200191505b50975050505050505050604051809103906000f0801580156105ee573d6000803e3d6000fd5b50905060008190806001815401808255809150509060018203906000526020600020016000909192909190916101000a81548173ffffffffffffffffffffffffffffffffffffffff021916908373ffffffffffffffffffffffffffffffffffffffff160217905550508273ffffffffffffffffffffffffffffffffffffffff166108fc66b1a2bc2ec500009081150290604051600060405180830381858888f193505050501580156106a4573d6000803e3d6000fd5b508091505095945050505050565b6000818154811015156106c157fe5b906000526020600020016000915054906101000a900473ffffffffffffffffffffffffffffffffffffffff1681565b6060600080548060200260200160405190810160405280929190818152602001828054801561077457602002820191906000526020600020905b8160009054906101000a900473ffffffffffffffffffffffffffffffffffffffff1673ffffffffffffffffffffffffffffffffffffffff168152602001906001019080831161072a575b5050505050905090565b604051610e3c8061078f8339019056fe60806040523480156200001157600080fd5b5060405162000e3c38038062000e3c833981018060405260a08110156200003757600080fd5b8101908080516401000000008111156200005057600080fd5b828101905060208101848111156200006757600080fd5b81518560018202830111640100000000821117156200008557600080fd5b50509291906020018051640100000000811115620000a257600080fd5b82810190506020810184811115620000b957600080fd5b8151856001820283011164010000000082111715620000d757600080fd5b5050929190602001805190602001909291908051906020019092919080519060200190929190505050846000908051906020019062000118929190620001f9565b50836001908051906020019062000131929190620001f9565b508260028190555082600a0a820260038190555080600460006101000a81548173ffffffffffffffffffffffffffffffffffffffff021916908373ffffffffffffffffffffffffffffffffffffffff16021790555060035460056000600460009054906101000a900473ffffffffffffffffffffffffffffffffffffffff1673ffffffffffffffffffffffffffffffffffffffff1673ffffffffffffffffffffffffffffffffffffffff168152602001908152602001600020819055505050505050620002a8565b828054600181600116156101000203166002900490600052602060002090601f016020900481019282601f106200023c57805160ff19168380011785556200026d565b828001600101855582156200026d579182015b828111156200026c5782518255916020019190600101906200024f565b5b5090506200027c919062000280565b5090565b620002a591905b80821115620002a157600081600090555060010162000287565b5090565b90565b610b8480620002b86000396000f3fe6080604052600436106100ba576000357c0100000000000000000000000000000000000000000000000000000000900463ffffffff168063047fc9aa146100bf57806306fdde03146100ea578063095ea7b31461017a57806318160ddd146101ed57806323b872dd1461021857806327e235e3146102ab578063313ce567146103105780634d853ee51461033b57806370a082311461039257806395d89b41146103f7578063a9059cbb14610487578063dd62ed3e146104fa575b600080fd5b3480156100cb57600080fd5b506100d461057f565b6040518082815260200191505060405180910390f35b3480156100f657600080fd5b506100ff610585565b6040518080602001828103825283818151815260200191508051906020019080838360005b8381101561013f578082015181840152602081019050610124565b50505050905090810190601f16801561016c5780820380516001836020036101000a031916815260200191505b509250505060405180910390f35b34801561018657600080fd5b506101d36004803603604081101561019d57600080fd5b81019080803573ffffffffffffffffffffffffffffffffffffffff16906020019092919080359060200190929190505050610623565b604051808215151515815260200191505060405180910390f35b3480156101f957600080fd5b50610202610772565b6040518082815260200191505060405180910390f35b34801561022457600080fd5b506102916004803603606081101561023b57600080fd5b81019080803573ffffffffffffffffffffffffffffffffffffffff169060200190929190803573ffffffffffffffffffffffffffffffffffffffff1690602001909291908035906020019092919050505061077c565b604051808215151515815260200191505060405180910390f35b3480156102b757600080fd5b506102fa600480360360208110156102ce57600080fd5b81019080803573ffffffffffffffffffffffffffffffffffffffff169060200190929190505050610871565b6040518082815260200191505060405180910390f35b34801561031c57600080fd5b50610325610889565b6040518082815260200191505060405180910390f35b34801561034757600080fd5b5061035061088f565b604051808273ffffffffffffffffffffffffffffffffffffffff1673ffffffffffffffffffffffffffffffffffffffff16815260200191505060405180910390f35b34801561039e57600080fd5b506103e1600480360360208110156103b557600080fd5b81019080803573ffffffffffffffffffffffffffffffffffffffff1690602001909291905050506108b5565b6040518082815260200191505060405180910390f35b34801561040357600080fd5b5061040c6108fe565b6040518080602001828103825283818151815260200191508051906020019080838360005b8381101561044c578082015181840152602081019050610431565b50505050905090810190601f1680156104795780820380516001836020036101000a031916815260200191505b509250505060405180910390f35b34801561049357600080fd5b506104e0600480360360408110156104aa57600080fd5b81019080803573ffffffffffffffffffffffffffffffffffffffff1690602001909291908035906020019092919050505061099c565b604051808215151515815260200191505060405180910390f35b34801561050657600080fd5b506105696004803603604081101561051d57600080fd5b81019080803573ffffffffffffffffffffffffffffffffffffffff169060200190929190803573ffffffffffffffffffffffffffffffffffffffff169060200190929190505050610ad1565b6040518082815260200191505060405180910390f35b60035481565b60008054600181600116156101000203166002900480601f01602080910402602001604051908101604052809291908181526020018280546001816001161561010002031660029004801561061b5780601f106105f05761010080835404028352916020019161061b565b820191906000526020600020905b8154815290600101906020018083116105fe57829003601f168201915b505050505081565b600081600560003373ffffffffffffffffffffffffffffffffffffffff1673ffffffffffffffffffffffffffffffffffffffff168152602001908152602001600020541015151561067357600080fd5b60008211151561068257600080fd5b81600660003373ffffffffffffffffffffffffffffffffffffffff1673ffffffffffffffffffffffffffffffffffffffff16815260200190815260200160002060008573ffffffffffffffffffffffffffffffffffffffff1673ffffffffffffffffffffffffffffffffffffffff168152602001908152602001600020819055508273ffffffffffffffffffffffffffffffffffffffff163373ffffffffffffffffffffffffffffffffffffffff167f8c5be1e5ebec7d5bd14f71427d1e84f3dd0314c0f7b2291e5b200ac8c7c3b925846040518082815260200191505060405180910390a36001905092915050565b6000600354905090565b600081600560008673ffffffffffffffffffffffffffffffffffffffff1673ffffffffffffffffffffffffffffffffffffffff16815260200190815260200160002054101515156107cc57600080fd5b81600560008673ffffffffffffffffffffffffffffffffffffffff1673ffffffffffffffffffffffffffffffffffffffff1681526020019081526020016000206000828254039250508190555081600560008573ffffffffffffffffffffffffffffffffffffffff1673ffffffffffffffffffffffffffffffffffffffff16815260200190815260200160002060008282540192505081905550600190509392505050565b60056020528060005260406000206000915090505481565b60025481565b600460009054906101000a900473ffffffffffffffffffffffffffffffffffffffff1681565b6000600560008373ffffffffffffffffffffffffffffffffffffffff1673ffffffffffffffffffffffffffffffffffffffff168152602001908152602001600020549050919050565b60018054600181600116156101000203166002900480601f0160208091040260200160405190810160405280929190818152602001828054600181600116156101000203166002900480156109945780601f1061096957610100808354040283529160200191610994565b820191906000526020600020905b81548152906001019060200180831161097757829003601f168201915b505050505081565b60008082111515610a15576040517f08c379a000000000000000000000000000000000000000000000000000000000815260040180806020018281038252600a8152602001807f746f6b656e203c2030200000000000000000000000000000000000000000000081525060200191505060405180910390fd5b81600560008573ffffffffffffffffffffffffffffffffffffffff1673ffffffffffffffffffffffffffffffffffffffff168152602001908152602001600020600082825401925050819055508273ffffffffffffffffffffffffffffffffffffffff163373ffffffffffffffffffffffffffffffffffffffff167fddf252ad1be2c89b69c2b068fc378daa952ba7f163c4a11628f55a4df523b3ef846040518082815260200191505060405180910390a36001905092915050565b6000600660008473ffffffffffffffffffffffffffffffffffffffff1673ffffffffffffffffffffffffffffffffffffffff16815260200190815260200160002060008373ffffffffffffffffffffffffffffffffffffffff1673ffffffffffffffffffffffffffffffffffffffff1681526020019081526020016000205490509291505056fea165627a7a72305820e8529db5d2f9951e126ef37ca6480a49737087487114412db5f649bc5d0fe8170029a165627a7a7230582017e73e717c15e5b1dbd75c8e449051b4e22cb80d35e6b4da2a240514a46037970029",
  "source": "pragma solidity >=0.4.21 <0.7.0;\nimport \"./ERC20TokenTemplate.sol\";\n\ncontract TokenGenerator {\n    \n    address[] public deployedTokensAddresses;\n    address owner;\n    \n    constructor() public {\n        owner = msg.sender;\n    }\n    \n    function generateToken(string memory _name, string memory _symbol, uint256 _decimals, uint256 _supply, address payable tokenOwner ) public returns(address) {\n        address newToken = address(new ERC20TokenTemplate(_name,_symbol,_decimals, _supply, tokenOwner));\n        deployedTokensAddresses.push(newToken);\n        tokenOwner.transfer(0.05 ether);\n        return newToken;\n    }\n\n    function getAllAddresses() public view returns (address[] memory){\n        return deployedTokensAddresses;\n    }\n\n    function addMoney() public payable returns(string memory) {\n        require(msg.sender == owner, \"Only owner is allowed!\");\n        return 'added';\n    }\n}",
  "sourcePath": "/home/kuldeep/ETHEREUM/Token-Creator-using-Ethereum/contracts/TokenGenerator.sol",
  "compiler": {
    "name": "solc",
    "version": "0.5.0+commit.1d4f565a.Emscripten.clang"
  },
  "schemaVersion": "3.0.2",
  "updatedAt": "2020-08-03T05:19:44.664Z",
  "devdoc": {
    "methods": {}
  },
  "userdoc": {
    "methods": {}
  }
}